:100000000C9472000C94B96F1895000018950000BC
:10001000189500001895000018950000189500002C
:10002000189500001895000018950000189500001C
:10003000189500001895000018950000189500000C
:1000400018950000189500001895000018950000FC
:1000500018950000189500001895000018950000EC
:10006000189500000C940DE61895000018950000F6
:1000700018950000189500001895000018950000CC
:1000800018950000189500001895000018950000BC
:1000900018950000189500001895000018950000AC
:1000A000189500001895000018950000189500009C
:1000B000189500001895000018950000189500008C
:1000C000189500001895000018950000189500007C
:1000D000189500001895000018950000189500006C
:1000E000189500008FEF8DBFCAE6E6E54E2E81E23F
:1000F0008EBFD1E2F0E25F2EA89584B7082E877FED
:1001000084BF88E199278093600090936000EEEFB0
:10011000FFE1A0E0B2E088278D933197E9F78FE007
:100120008093C40080E08093C50088E18093C10083
:1001300081E08093CD008FE78093CC0088E18093AD
:10014000C9000E945FF066248FE78093CC0081E0B5
:100150008093CD007091C8007D7F7093C80086E0C9
:100160008093CA0088E18093C900569A82E085BDD9
:1001700081EC84BD279A87E880937A0080E480939D
:100180007C0070EC70937C008AE090E00E94AAF101
:1001900070917A007F7770937A00809169008C7FEC
:1001A0008093690020982698259A389A399A509811
:1001B000519854986A986D989A98559A569A579A61
:1001C000249A2D982C984098589A599A5C9A5D9840
:1001D0005E985F986C9A74986C9A749A77B17C6FF9
:1001E00077B90E94A6F20106060000000000000098
:1001F0000000065F060000070300070300247E24BA
:100200007E2400242B6A1200006313086463003606
:100210004956205000000703000000003E41000046
:100220000000413E000000083E1C3E080008083E59
:1002300008080000E0600000000808080808000046
:1002400060600000002010080402003E5149453E55
:100250000000427F4000006251494946002249495E
:100260004936001814127F10002F49494931003CCB
:100270004A494930000171090503003649494936A8
:1002800000064949291E00006C6C00000000EC6C5F
:10029000000000081422410000242424242400002B
:1002A00041221408000201590906003E415D551E15
:1002B000007E1111117E007F49494936003E4141BF
:1002C0004122007F4141413E007F49494941007F31
:1002D00009090901003E4149497A007F0808087F61
:1002E0000000417F410000304040403F007F081443
:1002F0002241007F40404040007F0204027F007F97
:100300000204087F003E4141413E007F0909090681
:10031000003E4151215E007F0909196600264949C6
:1003200049320001017F0101003F4040403F001F72
:100330002040201F003F403C403F006314081463EE
:1003400000070870080700714945430000007F411D
:100350004100000204081020000041417F00000419
:10036000020102048080808080800000030700007A
:10037000002054545478007F4444443800384444A6
:10038000442800384444447F00385454540800083A
:100390007E0909000018A4A4A47C007F040478004E
:1003A0000000007D4000004080847D00007F102818
:1003B00044000000007F4000007C04180478007CAA
:1003C0000404780000384444443800FC4444443871
:1003D0000038444444FC0044784404080008545461
:1003E000542000043E442400003C40207C00001CBB
:1003F0002040201C003C6030603C006C10106C0001
:10040000009CA0603C00006454544C0000083E4135
:100410004100000000770000000041413E0800025A
:1004200001020100003C2623263C010808020000CE
:100430000000000000000000065F0600000000074A
:1004400003000703000000247E247E240000002413
:100450002B6A12000000006313086463000000367A
:100460004956205000000000070300000000000073
:100470003E41000000000000413E00000000000876
:100480003E1C3E0800000008083E0808000000006E
:10049000E0600000000000080808080800000000F4
:1004A0006060000000000020100804020000003E10
:1004B0005149453E00000000427F400000000062BC
:1004C00051494946000000224949493600000018B8
:1004D00014127F100000002F494949310000003CF0
:1004E0004A49493000000001710905030000003647
:1004F00049494936000000064949291E000000000C
:100500006C6C000000000000EC6C000000000008B3
:1005100014224100000000242424242400000000B0
:100520004122140800000002015909060000003EA3
:10053000415D551E0000007E1111117E0000007FFC
:10054000494949360000003E414141220000007FF8
:100550004141413E0000007F494949410000007F80
:10056000090909010000003E4149497A0000007F65
:100570000808087F00000000417F410000000030B3
:100580004040403F0000007F081422410000007FEF
:10059000404040400000007F0204027F0000007FD6
:1005A0000204087F0000003E4141413E0000007F00
:1005B000090909060000003E4151215E0000007F4C
:1005C0000909196600000026494949320000000166
:1005D000017F01010000003F4040403F0000001F3C
:1005E0002040201F0000003F403C403F00000063CF
:1005F0001408146300000007087008070000007169
:1006000049454300000000007F4141000000000216
:10061000040810200000000041417F000000000499
:1006200002010204000080808080808080800000C1
:100630000307000000000020545454780000007F9D
:100640004444443800000038444444280000003842
:100650004444447F0000003854545408000000080B
:100660007E09090000000018A4A4A47C0000007FFB
:100670000404780000000000007D400000000040FD
:1006800080847D000000007F1028440000000000EE
:10069000007F40000000007C041804780000007C0B
:1006A000040478000000003844444438000000FC92
:1006B0004444443800000038444444FC00000044F2
:1006C000784404080000000854545420000000043A
:1006D0003E4424000000003C40207C000000001C40
:1006E0002040201C0000003C6030603C0000006C9A
:1006F00010106C000000009CA0603C000000006432
:1007000054544C00000000083E414100000000002D
:10071000007700000000000041413E080000000298
:10072000010201000000003C2623263C0000001EC0
:10073000A1E121120000003D40207D0000000038B2
:1007400054545509000000205555557800000020EC
:10075000555455780000002055555478000000206D
:10076000575557780000001CA2E222140000003800
:1007700055555508000000385554550800000038FC
:100780005555540800000000017C410000000000A5
:100790000279420000000000017C4000000000706F
:1007A00029242970000000782F252F780000007C74
:1007B0005454554500000034547C54580000007EC9
:1007C000097F4949000000384545390000000038DC
:1007D0004544390000000039454438000000003C21
:1007E00041217D000000003D41207C000000009C74
:1007F000A1603D000000003D42423D000000003C81
:1008000041403D000000001824662400000000481C
:100810003E494962000000292A7C2A290000007F05
:100820000916781000000040887E090200000020B0
:100830005455557800000000007D4100000000384C
:10084000444539000000003C40217D000000007A52
:10085000090A71000000007A1122790000000008E6
:100860005555555E0000004E51514E0000000030BD
:10087000484D40200000003C04040404000004042F
:100880000404041C00000017084C6A500000001704
:1008900008342A7800000000307D30000000000895
:1008A000140008140000001408001408000044118B
:1008B000441144110000AA55AA55AA550000BBEEE8
:1008C000BBEEBBEE0000000000FF000000000808C7
:1008D00008FF000000000A0A0AFF0000000008FFED
:1008E00000FF0000000008F808F8000000000A0AF5
:1008F0000AFE000000000AFB00FF0000000000FFED
:1009000000FF000000000AFA02FE000000000A0BCF
:10091000080F00000000080F080F000000000A0A7E
:100920000A0F00000000080808F80000000000009E
:10093000000F080800000808080F08080000080851
:1009400008F808080000000000FF08080000080878
:10095000080808080000080808FF08080000000050
:1009600000FF0A0A000000FF00FF08080000000F57
:10097000080B0A0A000000FE02FA0A0A00000A0B2D
:10098000080B0A0A00000AFA02FA0A0A000000FF2D
:1009900000FB0A0A00000A0A0A0A0A0A00000AFB07
:1009A00000FB0A0A00000A0A0A0B0A0A0000080FE4
:1009B000080F080800000A0A0AFA0A0A000008F8E4
:1009C00008F808080000000F080F080800000000E1
:1009D000000F0A0A0000000000FE0A0A000000F8EA
:1009E00008F80808000008FF00FF080800000A0ACD
:1009F0000AFB0A0A00000808080F000000000000B7
:100A000000F808080000FFFFFFFFFFFF0000F0F004
:100A1000F0F0F0F00000FFFFFF0000000000000019
:100A200000FFFFFF00000F0F0F0F0F0F0000001857
:100A300024241824000000FE4A4A34000000007FED
:100A400001010300000000027E027E02000000633C
:100A5000554963000000001824241C04000000FC19
:100A600020201C000000000804780400000000089A
:100A7000557755080000003E49493E000000004CF3
:100A80007202724C0000002255593000000000181C
:100A90002418241800000018247E24180000001CCC
:100AA0002A2A2A000000003C02023C000000002A22
:100AB0002A2A2A0000000000242E240000000051F1
:100AC0004A4A4400000000444A4A51000000000025
:100AD00000FC020400000020403F0000000000086D
:100AE000082A080800000024122412000000000652
:100AF00009090600000000001818000000000000AE
:100B00000800000000000030403E0202000000012A
:100B10000E010E00000000090D0A00000000003C5C
:100B20003C3C3C0000000E9406F381E080937E0282
:100B300080E080935E03A2E8B3E0E2E0F4EF0E947D
:100B400041F50E941CF5A6E8B3E0E6E0F4EF0E9450
:100B500041F50E941CF5AAE8B3E0EAE0F4EF0E9438
:100B600041F50E941CF58DE48093BC038CE18093D9
:100B7000BD0380EC8093080280ED8093090280EE33
:100B800080930A0280EF80930B0283EE80930C0225
:100B900083EE80930D0283EE80930E0283EE8093AA
:100BA0000F02E0E0F0E0A2E8B2E091E00E946EF611
:100BB00085E090E00E94AAF1E0E0F3E0A7EEB2E069
:100BC00091E00E946EF685E090E00E94AAF1E2E0DA
:100BD000F3E0ADEEB2E091E00E946EF685E090E0C9
:100BE0000E94AAF10091E702013018F011F00C9474
:100BF000FB050C940A0680E08093E702E0E0F3E056
:100C0000A7EEB2E091E07BE70E945DF683E090E022
:100C10000E94AAF1009182020F3F11F00C941B0771
:100C200085E180938202E0E0F0E0A2E8B2E091E0AA
:100C30007BE70E945DF685E090E00E94AAF188E1E2
:100C400080938102E1E0F0E0A1E8B2E091E07BE78F
:100C50000E945DF685E090E00E94AAF18AE0809310
:100C60008902E2E0F0E0A9E8B2E091E07BE70E94CF
:100C70005DF685E090E00E94AAF182E080938B020D
:100C8000E3E0F0E0ABE8B2E091E07BE70E945DF6E4
:100C900085E090E00E94AAF18DE18093F402E4E007
:100CA000F0E0A4EFB2E091E07BE70E945DF685E022
:100CB00090E00E94AAF181E08093EA02E5E0F0E092
:100CC000AAEEB2E091E07BE70E945DF685E090E05D
:100CD0000E94AAF181E080933402E6E0F0E0A4E310
:100CE000B2E091E07BE70E945DF685E090E00E9433
:100CF000AAF180E08093F502E7E0F0E0A5EFB2E032
:100D000091E07BE70E945DF685E090E00E94AAF109
:100D10008FEF80938002E8E0F0E0A0E8B2E091E09D
:100D20007BE70E945DF683E090E00E94AAF182E0FA
:100D300080936703E9E0F0E0A7E6B3E091E07BE7AA
:100D40000E945DF683E090E00E94AAF180E080932B
:100D50008A02EAE0F0E0AAE8B2E091E07BE70E94D4
:100D60005DF685E090E00E94AAF180E08093870222
:100D7000EBE0F0E0A7E8B2E091E07BE70E945DF6EF
:100D800085E090E00E94AAF183E080935F03ECE0AD
:100D9000F0E0AFE5B3E091E07BE70E945DF685E02F
:100DA00090E00E94AAF100E010E020E030E0A0E036
:100DB000B3E00D931D932D933C93E9E0F6E0A8E694
:100DC000B3E091E07BE70E945DF685E090E00E9451
:100DD000AAF1A9E6B3E0E6E0F4EF0E9441F50E9433
:100DE0001CF5EAE0F6E0A9E6B3E094E07BE70E94B8
:100DF0005DF685E090E00E94AAF181E080938E0389
:100E0000EBE0F6E0AEE8B3E091E07BE70E945DF650
:100E100085E090E00E94AAF180E08093ED02E2E09C
:100E2000F3E0ADEEB2E091E07BE70E945DF683E097
:100E300090E00E94AAF10091E702013081E009F000
:100E400080E08F930091ED020B3081E008F080E0AC
:100E50009F9189238F93A9E2B0E00C9104FB81E07C
:100E60000EF480E09F9189238F93A9E2B0E00C916A
:100E700001FB81E00EF480E09F918923882311F427
:100E80000C94620780E08093E702E0E0F3E0A7EED5
:100E9000B2E091E07BE70E945DF683E090E00E9483
:100EA000AAF1ADEEB2E08C918F5F8C93E2E0F3E0BB
:100EB000ADEEB2E091E07BE70E945DF683E090E06A
:100EC0000E94AAF10091E702013011F00C946A0728
:100ED0000E94F5EEE6E0F0E0A4E3B2E091E00E94CB
:100EE0006EF683E090E00E94AAF1E7E0F0E0A5EF63
:100EF000B2E091E00E946EF683E090E00E94AAF1D9
:100F0000E8E0F0E0A0E8B2E091E00E946EF683E055
:100F100090E00E94AAF1A0E8B2E08C9187BD80E049
:100F20008A9380E08A9380E08A93ECE3FFED0E944D
:100F300041F58827809306020E94A5F380E0809304
:100F4000B5020091B502003418F011F00C94C207FC
:100F500080E08A938091B5028A9380E88A93809199
:100F6000B5028A9380E08A930E94F8F38DE290E0C4
:100F70000E94AAF1A5EBB2E08C918F5F8C9310F4E4
:100F80000C94A10780E08093B502EAE2F4E00E94AD
:100F900047F5A0E0B2E0ED93FD938BB78C9384E02E
:100FA000809304028FE080930502882780930602D5
:100FB000EAECF4EF0E9441F50E940CF186E0809388
:100FC000040282E280930502882780930602E8EDFE
:100FD000F4EF0E9441F50E940CF1009134020130BF
:100FE00011F00C94F4072C9A399AE8E5F2E08BE2C0
:100FF00092E00197419A0E949DF141980E949DF1D3
:10100000482F492BB1F72C98399AE4EFF1E080E9A9
:1010100091E00197419A0E949DF141980E949DF1B3
:10102000482F492BB1F700913402013011F00C9494
:101030001A082C9A399AE6E2F2E084EF91E00197DF
:10104000419A0E949DF141980E949DF1482F492BA1
:10105000B1F72C98E2EEF4EF0E9441F50E94DAF02D
:101060000E94E1F0409A8AEF90E00E94AAF1409835
:1010700084E690E00E94AAF15F9A8AEF90E00E94D5
:10108000AAF15F9884E690E00E94AAF15E9A8AEF46
:1010900090E00E94AAF15E9884E690E00E94AAF196
:1010A0005D9A2D9A8AEF90E00E94AAF15D9874985B
:1010B0000091F502013011F00C945F08409A009104
:1010C000F502003011F00C94660840980E9406F377
:1010D000E9E0F0E0A7E6B3E091E00E946EF683E07D
:1010E00090E00E94AAF100916703003011F00C9487
:1010F0007C0882E08093660300916703013011F061
:101100000C94850884E180936603009167030230A4
:1011100011F00C948E0882E380936603E6EEF1E012
:101120000E9447F5A0E0B2E0ED93FD938BB78C935E
:1011300000916703003011F00C94B30886E08093AF
:10114000040283E18093050281E080930602E6EECB
:10115000F4EF0E9441F50E940CF1E2EFF4EF0E94DF
:1011600041F50E940CF100916703013011F00C94DD
:10117000CE0886E0809304028EE08093050281E031
:1011800080930602E6EEF4EF0E9441F50E940CF116
:10119000E6EFF4EF0E9441F50E940CF10091670325
:1011A000023011F00C94E90886E08093040283E198
:1011B0008093050281E080930602E6EEF4EF0E9440
:1011C00041F50E940CF1EEEFF4EF0E9441F50E9410
:1011D0000CF180ED97E00E94AAF17091C100706857
:1011E0007093C1000E9406F3AFE7B2E08C9182FBDE
:1011F00016F00C94FD080E9406F370917F027B7F2D
:1012000070937F028AE090E00E94AAF12D98E6EEAA
:10121000F1E00E9447F5A0E0B2E0ED93FD938BB7BB
:101220008C9378940E94E5DB0E94E67C0091820218
:10123000053181E008F080E08F9300918202063151
:1012400080E010F009F081E09F91892B882311F450
:101250000C94390985E180938202E0E0F0E0A2E895
:10126000B2E091E07BE70E945DF685E090E00E94AD
:10127000AAF100918102073181E008F080E08F93AC
:10128000009181020A3180E010F009F081E09F9125
:10129000892B882311F40C945C0988E180938102E6
:1012A000E1E0F0E0A1E8B2E091E07BE70E945DF6CA
:1012B00085E090E00E94AAF100918902023081E06D
:1012C00008F080E08F9300918902043680E010F0EE
:1012D00009F081E09F91892B882311F40C947F09F8
:1012E0008AE080938902E2E0F0E0A9E8B2E091E0D0
:1012F0007BE70E945DF685E090E00E94AAF10091F4
:101300008B020A3018F011F00C9488090C9497099C
:1013100082E080938B02E3E0F0E0ABE8B2E091E0A2
:101320007BE70E945DF685E090E00E94AAF10091C3
:10133000F4020C3181E008F080E08F930091F40218
:101340000F3180E010F009F081E09F91892B882314
:1013500011F40C94BA098DE18093F402E4E0F0E01A
:10136000A4EFB2E091E07BE70E945DF685E090E0BB
:101370000E94AAF10091EA02033018F011F00C94D7
:10138000C3090C94D20981E08093EA02E5E0F0E021
:10139000AAEEB2E091E07BE70E945DF685E090E086
:1013A0000E94AAF100916703023018F011F00C942A
:1013B000DB090C94EA0982E080936703E9E0F0E03E
:1013C000A7E6B3E091E07BE70E945DF685E090E060
:1013D0000E94AAF100918A02033618F011F00C94D1
:1013E000F3090C94020A80E080938A02EAE0F0E0BC
:1013F000AAE8B2E091E07BE70E945DF685E090E02C
:101400000E94AAF1009187020E3118F011F00C949D
:101410000B0A0C941A0A80E080938702EBE0F0E05C
:10142000A7E8B2E091E07BE70E945DF685E090E0FE
:101430000E94AAF100915F03023318F011F00C949E
:10144000230A0C94320A83E080935F03ECE0F0E01F
:10145000AFE5B3E091E07BE70E945DF685E090E0C8
:101460000E94AAF100916803083C18F011F00C9456
:101470003B0A0C944A0A80E080936803E9E0F6E0B6
:10148000A8E6B3E091E07BE70E945DF685E090E09E
:101490000E94AAF1E9E6F3E00E940AF7EEE0F4EF19
:1014A0000E9441F50E94C9F80E94F1F618F011F06F
:1014B0000C945C0A0C94700AA9E6B3E0E6E0F4EF41
:1014C0000E9441F50E941CF5EAE0F6E0A9E6B3E0CF
:1014D00094E07BE70E945DF685E090E00E94AAF12F
:1014E00000918E03043618F011F00C94790A0C94D4
:1014F000880A81E080938E03EBE0F6E0AEE8B3E08B
:1015000091E07BE70E945DF685E090E00E94AAF101
:1015100081E08093D003E4E0F5EF0E9441F50E9462
:10152000DAF00E94E1F088EC90E00E94AAF10091CC
:10153000D003013011F00C94BD0A0E9406F385E03F
:10154000809304028EE1809305028827809306022F
:10155000EAE0F5EF0E9441F50E940CF186E08093ED
:1015600004028DE280930502882780930602E6E15B
:10157000F5EF0E9441F50E940CF185E08093D003C5
:10158000ECE1F5EF0E9441F50E94DAF00E94E1F0F3
:1015900088EC90E00E94AAF188E08093040281E048
:1015A00080930502882780930602E7ECF2E0AEE321
:1015B000B0E20E94CEF50E9404F1A7ECB2E00D91DA
:1015C0001C91063450E015071CF011F00C94EA0A47
:1015D0000C94EC0A0E9449EC0E94ABE00E944CE1A2
:1015E000A3E9B2E08C918F5F8C9300919302063453
:1015F00018F011F00C94FE0A0C94030B80E0809319
:1016000093020C94F408A9E2B0E00C9101FB81E094
:101610000EF480E08F93AFE7B2E08C9186FB81E01F
:101620000EF480E09F918923882311F40C94230BFE
:1016300070917F02706470937F020E9406F30C9495
:101640002D0B0C942B0B499B0C942B0B70917F0250
:101650007F7B70937F020C94EC0A81E080937E0282
:101660000E9406F30E9400740E94ABE00E944CE1CD
:10167000A9E2B0E00C9100FB81E00EF480E08F93D2
:10168000AFE7B2E08C9185FB81E00EF480E09F91A2
:101690008923882311F40C94660BAEE7B2E08C9199
:1016A0008F5F8C9300917E02013118F011F00C9441
:1016B0005B0B0C945E0B81E080937E020E940074B1
:1016C00086E990E00E94AAF10C946E0B489B0C9462
:1016D0006E0B70917F027F7D70937F02A9E2B0E074
:1016E0000C9104FB81E00EF480E08F93AFE7B2E051
:1016F0008C9187FB81E00EF480E09F918923882301
:1017000011F40C94990B80917E02815080937E029B
:1017100000917E02003011F00C94910B81E18093D6
:101720007E020E94007486E990E00E94AAF10C9467
:10173000A10B4C9B0C94A10B70917F027F7770934F
:101740007F0200917E02013081E009F080E08F93FA
:10175000A9E2B0E00C9101FB81E00EF480E09F91E2
:1017600089238F93AFE7B2E08C9186FB81E00EF482
:1017700080E09F918923882311F40C94C90B709108
:101780007F02706470937F0281E080937E020C94EC
:10179000EA0D00917E02023081E009F080E08F9333
:1017A000A9E2B0E00C9101FB81E00EF480E09F9192
:1017B00089238F93AFE7B2E08C9186FB81E00EF432
:1017C00080E09F918923882311F40C94F10B709190
:1017D0007F02706470937F0285E180937E020C9497
:1017E000B93100917E02033081E009F080E08F93EF
:1017F000A9E2B0E00C9101FB81E00EF480E09F9142
:1018000089238F93AFE7B2E08C9186FB81E00EF4E1
:1018100080E09F918923882311F40C94190C709116
:101820007F02706470937F0287E180937E020C9444
:10183000C63300917E02043081E009F080E08F938E
:10184000A9E2B0E00C9101FB81E00EF480E09F91F1
:1018500089238F93AFE7B2E08C9186FB81E00EF491
:1018600080E09F918923882311F40C94390C0C9407
:10187000EF3500917E02053081E009F080E08F9322
:10188000A9E2B0E00C9101FB81E00EF480E09F91B1
:1018900089238F93AFE7B2E08C9186FB81E00EF451
:1018A00080E09F918923882311F40C94590C0C94A7
:1018B000903D00917E02063081E009F080E08F9338
:1018C000A9E2B0E00C9101FB81E00EF480E09F9171
:1018D00089238F93AFE7B2E08C9186FB81E00EF411
:1018E00080E09F918923882311F40C94790C0C9447
:1018F000AB3E00917E02073081E009F080E08F93DB
:10190000A9E2B0E00C9101FB81E00EF480E09F9130
:1019100089238F93AFE7B2E08C9186FB81E00EF4D0
:1019200080E09F918923882311F40C94990C0C94E6
:10193000FA4000917E02083081E009F080E08F9348
:10194000A9E2B0E00C9101FB81E00EF480E09F91F0
:1019500089238F93AFE7B2E08C9186FB81E00EF490
:1019600080E09F918923882311F40C94B90C0C9486
:101970004E4600917E02093081E009F080E08F93AD
:10198000A9E2B0E00C9101FB81E00EF480E09F91B0
:1019900089238F93AFE7B2E08C9186FB81E00EF450
:1019A00080E09F918923882311F40C94D90C0C9426
:1019B000E24800917E020A3081E009F080E08F93D6
:1019C000A9E2B0E00C9101FB81E00EF480E09F9170
:1019D00089238F93AFE7B2E08C9186FB81E00EF410
:1019E00080E09F918923882311F40C94F90C0C94C6
:1019F000C24900917E020B3081E009F080E08F93B4
:101A0000A9E2B0E00C9101FB81E00EF480E09F912F
:101A100089238F93AFE7B2E08C9186FB81E00EF4CF
:101A200080E09F918923882311F40C94190D0C9464
:101A3000274B00917E020C3081E009F080E08F930B
:101A4000A9E2B0E00C9101FB81E00EF480E09F91EF
:101A500089238F93AFE7B2E08C9186FB81E00EF48F
:101A600080E09F918923882311F40C94390D0C9404
:101A7000754C00917E020D3081E009F080E08F937B
:101A8000A9E2B0E00C9101FB81E00EF480E09F91AF
:101A900089238F93AFE7B2E08C9186FB81E00EF44F
:101AA00080E09F918923882311F40C94590D0C94A4
:101AB000764F00917E020E3081E009F080E08F9336
:101AC000A9E2B0E00C9101FB81E00EF480E09F916F
:101AD00089238F93AFE7B2E08C9186FB81E00EF40F
:101AE00080E09F918923882311F40C94790D0C9444
:101AF0005A5D00917E020F3081E009F080E08F9303
:101B0000A9E2B0E00C9101FB81E00EF480E09F912E
:101B100089238F93AFE7B2E08C9186FB81E00EF4CE
:101B200080E09F918923882311F40C94990D0C94E3
:101B3000B46B00917E02003181E009F080E08F9368
:101B4000A9E2B0E00C9101FB81E00EF480E09F91EE
:101B500089238F93AFE7B2E08C9186FB81E00EF48E
:101B600080E09F918923882311F40C94B90D0C9483
:101B7000676D00917E02013181E009F080E08F9372
:101B8000A9E2B0E00C9101FB81E00EF480E09F91AE
:101B900089238F93AFE7B2E08C9186FB81E00EF44E
:101BA00080E09F918923882311F40C94E00D7091BB
:101BB0007F02706470937F020E9406F30C94F40815
:101BC000499B0C94E80D70917F027F7B70937F029C
:101BD0000C94340BE0E2F5EF0E9441F50E94DAF03C
:101BE0000E94E1F080E08093930280E0809388027D
:101BF000AAE4B2E0E2E0F4EF0E9441F50E941CF595
:101C0000AEE4B2E0E2E0F4EF0E9441F50E941CF580
:101C1000A2E5B2E0E2E0F4EF0E9441F50E941CF57B
:101C2000A6E5B2E0E2E0F4EF0E9441F50E941CF567
:101C3000AAE5B2E0E2E0F4EF0E9441F50E941CF553
:101C4000AEE5B2E0E2E0F4EF0E9441F50E941CF53F
:101C5000A6E6B2E0E2E0F4EF0E9441F50E941CF536
:101C6000AAE6B2E0E2E0F4EF0E9441F50E941CF522
:101C7000AEE6B2E0E2E0F4EF0E9441F50E941CF50E
:101C8000A2E7B2E0E2E0F4EF0E9441F50E941CF509
:101C9000A2E6B2E0E2E0F4EF0E9441F50E941CF5FA
:101CA000AAE7B2E0E2E0F4EF0E9441F50E941CF5E1
:101CB000A6E7B2E0E2E0F4EF0E9441F50E941CF5D5
:101CC00000E010E020E030E0ADEAB2E00D931D93BB
:101CD0002D933C9380E080934902A9EAB2E0E2E0D0
:101CE000F4EF0E9441F50E941CF5A9E3B2E0E2E0A6
:101CF000F4EF0E9441F50E941CF5ADE3B2E0E2E092
:101D0000F4EF0E9441F50E941CF5A1E4B2E0E2E08C
:101D1000F4EF0E9441F50E941CF5A5E4B2E0E2E078
:101D2000F4EF0E9441F50E941CF500E010E020E075
:101D300030E0A4E9B2E00D931D932D933C9300E0B5
:101D400010E020E030E0A8E9B2E00D931D932D9360
:101D50003C9300E010E020E030E0ACE9B2E00D930D
:101D60001D932D933C9300E010E020E030E0A0EACA
:101D7000B2E00D931D932D933C9380E090E0AEE88C
:101D8000B2E08D939C93A1EBB2E0E2E0F4EF0E940D
:101D900041F50E941CF55F985E985D98A0E3B2E063
:101DA000E2E0F4EF0E9441F50E941CF5A5E3B2E0E9
:101DB000E2E0F4EF0E9441F50E941CF580E0809380
:101DC000A80280E08093E80280E08093E90280E04E
:101DD0008093EB0280E08093EC02A6E5B3E0E2E0C2
:101DE000F4EF0E9441F50E941CF5AAE3B3E0E2E0A3
:101DF000F4EF0E9441F50E941CF5AEE3B3E0E2E08F
:101E0000F4EF0E9441F50E941CF5A2E4B3E0E2E089
:101E1000F4EF0E9441F50E941CF5A6E4B3E0E2E075
:101E2000F4EF0E9441F50E941CF5AAE4B3E0E2E061
:101E3000F4EF0E9441F50E941CF5AEE4B3E0E2E04D
:101E4000F4EF0E9441F50E941CF5A2E5B3E0E2E048
:101E5000F4EF0E9441F50E941CF5AAE5B3E0E2E030
:101E6000F4EF0E9441F50E941CF5A6E1B3E0E2E028
:101E7000F4EF0E9441F50E941CF5AAE1B3E0E2E014
:101E8000F4EF0E9441F50E941CF5AEE1B3E0E2E000
:101E9000F4EF0E9441F50E941CF5A2E2B3E0E2E0FB
:101EA000F4EF0E9441F50E941CF5A2E1B3E0E2E0EC
:101EB000F4EF0E9441F50E941CF500E010E020E0E4
:101EC00030E0A6E3B3E00D931D932D933C9300E027
:101ED00010E020E030E0A6E2B3E00D931D932D93D7
:101EE0003C9300E010E020E030E0AAE2B3E00D9384
:101EF0001D932D933C9300E010E020E030E0AEE233
:101F0000B3E00D931D932D933C9300E010E020E08F
:101F100030E0A2E3B3E00D931D932D933C93AEE02C
:101F2000B3E0E2E0F4EF0E9441F50E941CF5A6E068
:101F3000B3E0E2E0F4EF0E9441F50E941CF5AAE054
:101F4000B3E0E2E0F4EF0E9441F50E941CF580E06E
:101F50008093F702A8EFB2E0E2E0F4EF0E9441F5CF
:101F60000E941CF500E010E020E030E0ACEFB2E0B1
:101F70000D931D932D933C9300E010E020E030E0A2
:101F8000A0E0B3E00D931D932D933C9380E08093EC
:101F9000F602A3E8B2E0E2E0F4EF0E9441F50E940D
:101FA0001CF570917F027F7E70937F0280E08093AA
:101FB000EE0280E090E0AFEEB2E08D939C9380E083
:101FC00090E0A0E9B2E08D939C9380E08093920230
:101FD00080E08093B502ADE6B3E0E2E0F4EF0E946A
:101FE00041F50E941CF5A7E9B3E0E2E0F4EF0E949E
:101FF00041F50E941CF5ABE9B3E0E2E0F4EF0E948A
:1020000041F50E941CF5A3E9B3E0E2E0F4EF0E9481
:1020100041F50E941CF5AFE8B3E0E2E0F4EF0E9466
:1020200041F50E941CF5A2E8B3E0E2E0F4EF0E9463
:1020300041F50E941CF5A6E8B3E0E6E0F4EF0E944B
:1020400041F50E941CF580E090E0ACEAB3E08D938E
:102050009C93E9E0F0E0A7E6B3E091E00E946EF621
:1020600083E090E00E94AAF100916703003011F034
:102070000C943D1082E08093660300916703013069
:1020800011F00C94461084E180936603009167037D
:10209000023011F00C944F1082E380936603E9E064
:1020A000F6E0A8E6B3E091E00E946EF683E090E0EF
:1020B0000E94AAF1EAE0F6E0A9E6B3E094E00E940B
:1020C0006EF683E090E00E94AAF10E9406F3009170
:1020D0008102073111F00C947310E89A82E080932A
:1020E000A8020C94EA2A81E08093040281E08093A4
:1020F0000502882780930602E4E2F5EF0E9441F58D
:102100000E940CF182E08093040283E08093050238
:10211000882780930602EAE3F5EF0E9441F50E94CA
:102120000CF184E08093040283E080930502882709
:1021300080930602ECE4F5EF0E9441F50E940CF159
:1021400086E08093040283E08093050288278093D1
:102150000602EEE5F5EF0E9441F50E940CF1A9E2BE
:10216000B0E00C9104FB81E00EF480E08F93AFE7C8
:10217000B2E08C9187FB81E00EF480E09F9189238F
:10218000882311F40C94E71070917F0270687093AB
:102190007F0270917F027D7F70937F020E9406F321
:1021A00084E0809304028DE28093050281E08093B5
:1021B0000602E4E7F5EF0E9441F50E940CF188E089
:1021C00097E00E94AAF10C9431110C94EF104C9BF3
:1021D0000C94EF1070917F027F7770937F02A9E2D9
:1021E000B0E00C9100FB81E00EF480E08F93AFE74C
:1021F000B2E08C9185FB81E00EF480E09F91892311
:10220000882311F40C94271170917F0270627093EF
:102210007F0270917F02726070937F020E9406F3CA
:1022200084E08093040289E18093050281E0809339
:102230000602ECE7F5EF0E9441F50E940CF188E000
:1022400097E00E94AAF10C9431110C942F11489B35
:102250000C942F1170917F027F7D70937F020C94FC
:10226000AF100E9406F300918102093111F00C9425
:102270004411E89A83E08093A80281E08093EE0203
:102280000C94882C0C947211009181020A3181E027
:1022900009F080E08F9300918202053181E009F01E
:1022A00080E09F918923882311F40C945C11E89AB3
:1022B0000C9487250C947211009181020A3181E0FF
:1022C00009F080E08F9300918202063181E009F0ED
:1022D00080E09F918923882311F40C947211E89A6D
:1022E0000C940728AFE7B2E08C9181FB16F00C94B8
:1022F000A21C81E08093040281E08093050288277C
:1023000080930602EAE8F5EF0E9441F50E940CF185
:1023100082E08093040281E0809305028827809305
:102320000602EAE9F5EF0E9441F50E940CF10091E6
:10233000F4020D3111F00C94AC1183E0809304028F
:1023400081E080930502882780930602EAEAF5EF90
:102350000E9441F50E940CF185E08093040281E027
:1023600080930502882780930602EEEBF5EF0E942A
:1023700041F50E940CF186E08093040281E0809395
:102380000502882780930602E0EDF5EF0E9441F5F3
:102390000E940CF187E08093040281E080930502A3
:1023A000882780930602E2EEF5EF0E9441F50E9435
:1023B0000CF18AEF90E00E94AAF1A9E2B0E00C9142
:1023C00004FB81E00EF480E08F93AFE7B2E08C91E4
:1023D00087FB81E00EF480E09F918923882311F42C
:1023E0000C94771270917F02706870937F020E9444
:1023F00006F300918902023318F011F00C940212D6
:102400000C94611282E08093040281E080930502C3
:10241000882780930602E2EFF5EF0E9441F50E94C3
:102420000CF183E08093040281E080930502882709
:1024300080930602E8E0F6EF0E9441F50E940CF15D
:1024400085E08093040281E08093050288278093D1
:102450000602EEE1F6EF0E9441F50E940CF186E0E3
:102460008093040281E0809305028827809306020E
:10247000E2E3F6EF0E9441F50E940CF187E08093C1
:10248000040281E080930502882780930602E8E435
:10249000F6EF0E9441F50E940CF1009134020130E8
:1024A00011F00C9459122C9A88EE93E00E94AAF134
:1024B0002C98EAE0F0E00E9413F10E9406F30C94DD
:1024C000F40881E08093DE0284E08093040286E2D7
:1024D0008093050281E080930602E8E5F6EF0E9412
:1024E00041F50E940CF10C9466130C947F124C9BE6
:1024F0000C947F1270917F027F7770937F02A9E224
:10250000B0E00C9100FB81E00EF480E08F93AFE728
:10251000B2E08C9185FB81E00EF480E09F918923ED
:10252000882311F40C94B11270917F027062709341
:102530007F0280E08093DE020E9406F384E08093B5
:10254000040288E28093050281E080930602E2E6BD
:10255000F6EF0E9441F50E940CF10C9466130C9466
:10256000B912489B0C94B91270917F027F7D7093D1
:102570007F02A9E2B0E00C9101FB81E00EF480E063
:102580008F93AFE7B2E08C9186FB81E00EF480E0A0
:102590009F9189238F930091F4020D3181E009F01E
:1025A00080E09F918923882311F40C945C1370912F
:1025B0007F02706470937F020E9406F3009189028B
:1025C000023318F011F00C94E7120C94461382E0D9
:1025D0008093040281E0809305028827809306029D
:1025E000E2EFF5EF0E9441F50E940CF183E0809349
:1025F000040281E080930502882780930602E8E0C8
:10260000F6EF0E9441F50E940CF185E080930402F0
:1026100081E080930502882780930602EEE1F6EFC1
:102620000E9441F50E940CF186E08093040281E053
:1026300080930502882780930602E2E3F6EF0E946A
:1026400041F50E940CF187E08093040281E08093C1
:102650000502882780930602E8E4F6EF0E9441F520
:102660000E940CF100913402013011F00C943E13E1
:102670002C9A88EE93E00E94AAF12C98EAE0F0E010
:102680000E9413F10E9406F30C94F40882E08093F8
:10269000DE0284E0809304028BE18093050281E0F6
:1026A00080930602ECE6F6EF0E9441F50E940CF1E1
:1026B0000C9466130C946413499B0C9464137091EE
:1026C0007F027F7B70937F020C94DD110091DE020C
:1026D000013011F00C94E6148CED95E00E94AAF103
:1026E0000E9406F381E08093710381E080930402ED
:1026F00081E080930502882780930602EAE7F6EFDF
:102700000E9441F50E940CF182E08093040281E076
:1027100080930502882780930602EEE8F6EF0E9478
:1027200041F50E940CF184E08093040281E08093E3
:102730000502882780930602E4EAF6EF0E9441F53D
:102740000E940CF185E08093040281E080930502F1
:10275000882780930602EAEBF6EF0E9441F50E947B
:102760000CF187E08093040288E2809305028827B9
:1027700080930602ECECF6EF0E9441F50E940CF10A
:10278000E1E7F3E0AEE3B0E20E94D5F50E9404F188
:10279000E4EDF6EF0E9441F50E940CF1A9E2B0E0F1
:1027A0000C9104FB81E00EF480E08F93AFE7B2E080
:1027B0008C9187FB81E00EF480E09F918923882330
:1027C00011F40C941C1470917F02706870937F0256
:1027D000A1E7B3E08C918F5F8C930091710304317A
:1027E00018F011F00C94F6130C94F91384E1809313
:1027F000710387E08093040288E2809305028827B2
:1028000080930602ECECF6EF0E9441F50E940CF179
:10281000E1E7F3E0AEE3B0E20E94D5F50E9404F1F7
:10282000E4EDF6EF0E9441F50E940CF184E690E0A1
:102830000E94AAF10C9424144C9B0C9424147091C3
:102840007F027F7770937F02A9E2B0E00C9100FBDA
:1028500081E00EF480E08F93AFE7B2E08C9185FBCE
:1028600081E00EF480E09F918923882311F40C9479
:102870006F1470917F02706270937F028091710378
:1028800081508093710300917103013010F00C941A
:102890004C1481E08093710387E08093040288E206
:1028A00080930502882780930602ECECF6EF0E94E5
:1028B00041F50E940CF1E1E7F3E0AEE3B0E20E94E3
:1028C000D5F50E9404F1E4EDF6EF0E9441F50E9477
:1028D0000CF184E690E00E94AAF10C947714489BD6
:1028E0000C94771470917F027F7D70937F02A9E230
:1028F000B0E00C9101FB81E00EF480E08F93AFE734
:10290000B2E08C9186FB81E00EF480E09F918923F8
:10291000882311F40C94DC1470917F02706470931E
:102920007F0282E390E00E94AAF187E08093040294
:1029300088E28093050281E080930602ECECF6EFDA
:102940000E9441F50E940CF1E1E7F3E0AEE3B0E252
:102950000E94D5F50E9404F100913402013011F07B
:102960000C94B8142C9A82E890E00E94AAF12C985A
:10297000A1E7B3E00D91112701501040AAEAB3E09E
:102980000D931C93AAEAB3E00D911C9144E85CE01E
:102990000E94C4F4AAEAB3E00D931C93AAEAB3E040
:1029A0000D911C91075F1F4FAAEAB3E00D931C9392
:1029B0000C94E6140C94E414499B0C94E414709168
:1029C0007F027F7B70937F020C94CE130091DE0216
:1029D000023011F00C94391B8CED95E00E94AAF1A5
:1029E0000E9406F370917F02706470937F0281E011
:1029F0008093710382E08093720381E080930402EC
:102A000084E080930502882780930602E6EDF6EFC6
:102A10000E9441F50E940CF182E08093040281E063
:102A200080930502882780930602E6EEF6EF0E9467
:102A300041F50E940CF184E08093040281E08093D0
:102A4000050280E080930602E8EFF6EF0E9441F570
:102A50000E940CF1E1E7F3E0AEE3B0E20E94D5F5AD
:102A60000E9404F184E0809304028CE680930502C6
:102A700081E080930602E1E7F3E0AEE3B0E20E947A
:102A8000D5F50E9404F186E08093040281E08093F2
:102A9000050280E080930602ECE0F7EF0E9441F52A
:102AA0000E940CF1E2E7F3E0AEE3B0E20E94D5F55C
:102AB0000E9404F1A9E2B0E00C9104FB81E00EF465
:102AC00080E08F93AFE7B2E08C9187FB81E00EF45A
:102AD00080E09F918923882311F40C94CD15709187
:102AE0007F02706870937F02A1E7B3E08C918F5FE3
:102AF0008C934091720300917103041711F00C94B0
:102B00008615A1E7B3E08C918F5F8C9300917103E0
:102B1000043118F011F00C948F150C94921584E187
:102B2000809371034091720300917103041711F0B7
:102B30000C949F15A1E7B3E08C9181508C9384E0B5
:102B4000809304028CE68093050280E08093060265
:102B5000E1E7F3E0AEE3B0E20E94D5F50E9404F1B4
:102B6000E4EDF6EF0E9441F50E940CF184E08093C1
:102B700004028CE68093050281E080930602E1E77F
:102B8000F3E0AEE3B0E20E94D5F50E9404F184E6E2
:102B900090E00E94AAF10C94D5154C9B0C94D5158D
:102BA00070917F027F7770937F02A9E2B0E00C9171
:102BB00000FB81E00EF480E08F93AFE7B2E08C91F0
:102BC00085FB81E00EF480E09F918923882311F436
:102BD0000C94451670917F02706270937F02809111
:102BE00071038150809371034091720300917103CE
:102BF000041711F00C940116A1E7B3E08C918150F9
:102C00008C9300917103013010F00C940A1681E04E
:102C1000809371034091720300917103041711F0C6
:102C20000C941716A1E7B3E08C918F5F8C9384E02E
:102C3000809304028CE68093050280E08093060274
:102C4000E1E7F3E0AEE3B0E20E94D5F50E9404F1C3
:102C5000E4EDF6EF0E9441F50E940CF184E08093D0
:102C600004028CE68093050281E080930602E1E78E
:102C7000F3E0AEE3B0E20E94D5F50E9404F184E6F1
:102C800090E00E94AAF10C944D16489B0C944D16AE
:102C900070917F027F7D70937F02A9E2B0E00C917A
:102CA00001FB81E00EF480E08F93AFE7B2E08C91FE
:102CB00086FB81E00EF480E09F918923882311F444
:102CC0000C94A31670917F02706470937F0282E36C
:102CD00090E00E94AAF184E0809304028CE6809345
:102CE000050280E080930602E1E7F3E0AEE3B0E2A4
:102CF0000E94D5F50E9404F1E4EDF6EF0E9441F543
:102D00000E940CF184E0809304028CE6809305021B
:102D100081E080930602E1E7F3E0AEE3B0E20E94D7
:102D2000D5F50E9404F100913402013011F00C94A9
:102D30009F162C9A82E890E00E94AAF12C980C949D
:102D4000AD160C94AB16499B0C94AB1670917F0298
:102D50007F7B70937F020C945A15A1E7B3E00D912D
:102D6000112701501040AAEAB3E00D931C93AAEA80
:102D7000B3E00D911C9144E85CE00E94C4F4AAEA1F
:102D8000B3E00D931C930E9414E58091A3038093FC
:102D900089024FEF5FEF6FEF70E0A3EAB3E00D91B0
:102DA0001D912D913C910E94B2F511F00C94DB160F
:102DB00080E080938902A1E7B3E00D9111270150D3
:102DC0001040AAEAB3E00D931C93AAEAB3E00D9178
:102DD0001C9144E85CE00E94C4F4AAEAB3E00D93BD
:102DE0001C93AAEAB3E00D911C910D5F1F4FAAEA54
:102DF000B3E00D931C930E9414E58091A30380938C
:102E000088024FEF5FEF6FEF70E0A3EAB3E00D9140
:102E10001D912D913C910E94B2F511F00C94131765
:102E200080E08093880200918802003081E009F4FC
:102E300080E08F9300918902003081E009F480E006
:102E40009F918923882311F40C9412180E9406F391
:102E500081E08093040281E08093050288278093BB
:102E60000602EAE8F5EF0E9441F50E940CF182E0CB
:102E70008093040281E080930502882780930602F4
:102E8000EAE9F5EF0E9441F50E940CF184E080939D
:102E9000040281E080930502882780930602EEE118
:102EA000F7EF0E9441F50E940CF185E08093040247
:102EB00081E080930502882780930602E0E3F7EF24
:102EC0000E9441F50E940CF186E08093040281E0AB
:102ED00080930502882780930602E2E4F7EF0E94C0
:102EE00041F50E940CF187E08093040281E0809319
:102EF0000502882780930602E6E5F7EF0E9441F578
:102F00000E940CF1A9E2B0E00C9104FB81E00EF408
:102F100080E08F93AFE7B2E08C9187FB81E00EF405
:102F200080E09F918923882311F40C94C11770913C
:102F30007F02706870937F0200913402013011F0BB
:102F40000C94A8172C9A82E890E00E94AAF12C9881
:102F50000E9406F384E08093040286E280930502D7
:102F600081E080930602E8E5F6EF0E9441F50E94B9
:102F70000CF1E1E0F0E00E9413F10C9412180C94B3
:102F8000C9174C9B0C94C91770917F027F7770937F
:102F90007F02A9E2B0E00C9100FB81E00EF480E03A
:102FA0008F93AFE7B2E08C9185FB81E00EF480E077
:102FB0009F918923882311F40C94081870917F0243
:102FC000706270937F0200913402013011F00C9412
:102FD000EF172C9A82E890E00E94AAF12C980E94A8
:102FE00006F384E08093040288E28093050281E086
:102FF00080930602E2E6F6EF0E9441F50E940CF192
:10300000E1E0F0E00E9413F10C94EC140C94101821
:10301000489B0C94101870917F027F7D70937F0203
:103020000C94821780E08093890280E0809388026C
:1030300084E08093040281E08093050280E0809325
:103040000602E8EFF6EF0E9441F50E940CF1E1E77D
:10305000F3E0AEE3B0E20E94D5F50E9404F1E8E6A9
:10306000F7EF0E9441F50E940CF186E08093040284
:1030700081E08093050280E080930602ECE0F7EFA8
:103080000E9441F50E940CF1E2E7F3E0AEE3B0E20A
:103090000E94D5F50E9404F186E08093040286E642
:1030A0008093050281E080930602E2E7F3E0AEE35D
:1030B000B0E20E94D5F50E9404F1A9E2B0E00C91C3
:1030C00004FB81E00EF480E08F93AFE7B2E08C91D7
:1030D00087FB81E00EF480E09F918923882311F41F
:1030E0000C94D01870917F02706870937F02A2E7F1
:1030F000B3E08C918F5F8C934091710300917203C8
:10310000041711F00C948918A2E7B3E08C918F5F3B
:103110008C93009172030E3118F011F00C949218F8
:103120000C9495188EE18093720340917103009185
:103130007203041711F00C94A218A2E7B3E08C916B
:1031400081508C9386E08093040286E6809305028A
:1031500080E080930602E2E7F3E0AEE3B0E20E9493
:10316000D5F50E9404F1E4EDF6EF0E9441F50E94CE
:103170000CF186E08093040286E68093050281E0EC
:1031800080930602E2E7F3E0AEE3B0E20E94D5F5F9
:103190000E9404F184E690E00E94AAF10C94D818F1
:1031A0004C9B0C94D81870917F027F7770937F02AC
:1031B000A9E2B0E00C9100FB81E00EF480E08F9377
:1031C000AFE7B2E08C9185FB81E00EF480E09F9147
:1031D0008923882311F40C94481970917F0270623E
:1031E00070937F02809172038150809372034091AB
:1031F000710300917203041711F00C940419A2E7F3
:10320000B3E08C9181508C9300917203013010F0E7
:103210000C940D1981E08093720340917103009129
:103220007203041711F00C941A19A2E7B3E08C9101
:103230008F5F8C9386E08093040286E6809305027C
:1032400080E080930602E2E7F3E0AEE3B0E20E94A2
:10325000D5F50E9404F1E4EDF6EF0E9441F50E94DD
:103260000CF186E08093040286E68093050281E0FB
:1032700080930602E2E7F3E0AEE3B0E20E94D5F508
:103280000E9404F184E690E00E94AAF10C94501987
:10329000489B0C94501970917F027F7D70937F0240
:1032A000A9E2B0E00C9101FB81E00EF480E08F9385
:1032B000AFE7B2E08C9186FB81E00EF480E09F9155
:1032C0008923882311F40C94A61970917F027064ED
:1032D00070937F0282E390E00E94AAF186E08093DF
:1032E000040286E68093050280E080930602E2E70E
:1032F000F3E0AEE3B0E20E94D5F50E9404F1E4ED04
:10330000F6EF0E9441F50E940CF186E080930402E2
:1033100086E68093050281E080930602E2E7F3E00F
:10332000AEE3B0E20E94D5F50E9404F100913402B0
:10333000013011F00C94A2192C9A82E890E00E94BE
:10334000AAF12C980C94B0190C94AE19499B0C94CA
:10335000AE1970917F027F7B70937F020C945D1891
:10336000A2E7B3E00D91112701501040AAEAB3E0A3
:103370000D931C93AAEAB3E00D911C9144E85CE024
:103380000E94C4F4AAEAB3E00D931C930E9414E5D2
:103390008091A303809389024FEF5FEF6FEF70E09E
:1033A000A3EAB3E00D911D912D913C910E94B2F5DD
:1033B00011F00C94DE1980E080938902A2E7B3E05B
:1033C0000D91112701501040AAEAB3E00D931C9310
:1033D000AAEAB3E00D911C9144E85CE00E94C4F4B9
:1033E000AAEAB3E00D931C93AAEAB3E00D911C91F5
:1033F0000D5F1F4FAAEAB3E00D931C930E9414E5E2
:103400008091A303809388024FEF5FEF6FEF70E02E
:10341000A3EAB3E00D911D912D913C910E94B2F56C
:1034200011F00C94161A80E08093880200918802B3
:10343000003081E009F480E08F9300918902003030
:1034400081E009F480E09F918923882311F40C9492
:10345000331B0E9406F381E08093040281E0809395
:103460000502882780930602EAE8F5EF0E9441F5FD
:103470000E940CF182E08093040281E080930502B7
:10348000882780930602EAE9F5EF0E9441F50E9441
:103490000CF184E08093040281E080930502882788
:1034A00080930602EEE1F7EF0E9441F50E940CF1D5
:1034B00085E08093040281E0809305028827809351
:1034C0000602E0E3F7EF0E9441F50E940CF186E06E
:1034D0008093040281E0809305028827809306028E
:1034E000E2E4F7EF0E9441F50E940CF187E080933F
:1034F000040281E080930502882780930602E6E5B6
:10350000F7EF0E9441F50E940CF1A9E2B0E00C91A6
:1035100004FB81E00EF480E08F93AFE7B2E08C9182
:1035200087FB81E00EF480E09F918923882311F4CA
:103530000C94C41A70917F02706870937F0200919E
:103540003402013011F00C94AB1A2C9A82E890E00E
:103550000E94AAF12C980E9406F384E08093040252
:1035600086E28093050281E080930602E8E5F6EFAB
:103570000E9441F50E940CF1E1E0F0E00E9413F19D
:103580000C94331B0C94CC1A4C9B0C94CC1A709159
:103590007F027F7770937F02A9E2B0E00C9100FB7D
:1035A00081E00EF480E08F93AFE7B2E08C9185FB71
:1035B00081E00EF480E09F918923882311F40C941C
:1035C000291B70917F02706270937F020091340218
:1035D000013011F00C94F21A2C9A82E890E00E94CB
:1035E000AAF12C980E9406F384E08093040288E2FA
:1035F0008093050281E080930602E2E6F6EF0E94E6
:1036000041F50E940CF1E1E0F0E00E9413F181E04D
:103610008093040284E08093050288278093060249
:10362000E6EDF6EF0E9441F50E940CF182E08093F6
:10363000040281E080930502882780930602E6EE6B
:10364000F6EF0E9441F50E940CF10C9418180C94AE
:10365000311B489B0C94311B70917F027F7D7093CE
:103660007F020C94851A80E08093890280E0809329
:103670008802A3E2B0E00C9106FB81E00EF080E04E
:103680008F93ACE2B0E00C9105FB81E00EF080E09E
:103690009F91892B8F930091DE02023081E009F027
:1036A00080E09F918923882311F40C94801C8CED79
:1036B00095E00E94AAF10E9406F381E08093040243
:1036C00081E080930502882780930602ECE6F7EFFD
:1036D0000E9441F50E940CF182E08093040281E097
:1036E00080930502882780930602E0E8F7EF0E94A6
:1036F00041F50E940CF187E08093040281E0809301
:103700000502882780930602E2E9F7EF0E9441F55F
:103710000E940CF188E08093040281E0809305020E
:10372000882780930602EAEBF6EF0E9441F50E949B
:103730000CF184E0809304028EE18093050281E025
:1037400080930602E6EAF7EF0E9441F50E940CF131
:10375000A9E2B0E00C9104FB81E00EF480E08F93CD
:10376000AFE7B2E08C9187FB81E00EF480E09F919F
:103770008923882311F40C94101C70917F027068C7
:1037800070937F02AFE7B2E08C9183FB882780F9CA
:10379000809580FBAFE7B2E08C9183F98C93AFE723
:1037A000B2E08C9183FB16F40C94F41B84E08093BC
:1037B00004028EE180930502882780930602E4EBE1
:1037C000F7EF0E9441F50E940CF184E0809304021F
:1037D0008EE18093050281E080930602E6EAF7EF2E
:1037E0000E9441F50E940CF1AFE7B2E08C9183FB9F
:1037F00016F00C940A1C84E0809304028EE18093FE
:10380000050281E080930602E2ECF7EF0E9441F5A9
:103810000E940CF18CE291E00E94AAF10C94181C19
:103820004C9B0C94181C70917F027F7770937F02E1
:10383000A9E2B0E00C9101FB81E00EF480E08F93EF
:10384000AFE7B2E08C9186FB81E00EF480E09F91BF
:103850008923882311F40C94741C70917F02706486
:1038600070937F0282E390E00E94AAF10E9406F327
:10387000AFE7B2E08C9183FB16F40C944E1C84E00D
:10388000809304028EE18093050281E0809306021A
:10389000E6EAF7EF0E9441F50E940CF1AFE7B2E0D3
:1038A0008C9183FB16F00C94641C84E080930402DA
:1038B0008EE18093050281E080930602E2ECF7EF4F
:1038C0000E9441F50E940CF100913402013011F088
:1038D0000C94701C2C9A82E890E00E94AAF12C981B
:1038E0000C947E1C0C947C1C499B0C947C1C709149
:1038F0007F027F7B70937F020C94A81B0C949E1C0C
:10390000A3E2B0E00C9106FB81E00EF480E08F931F
:10391000ACE2B0E00C9105FB81E00EF480E09F91F9
:1039200089238F930091DE02023081E009F080E06C
:103930009F918923882311F40C949E1C8CED95E0B3
:103940000E94AAF10E9406F388E280937E020E9400
:1039500000740E94ABE00E944CE1A9E2B0E00C913F
:1039600000FB81E00EF480E08F93AFE7B2E08C9132
:1039700085FB81E00EF480E09F918923882311F478
:103980000C94DC1C70917F02706270937F02AEE732
:10399000B2E08C918F5F8C9300917E02093218F017
:1039A00011F00C94D51C0C94D81C88E280937E02F4
:1039B0000E9400740C94E41C489B0C94E41C7091CD
:1039C0007F027F7D70937F02A9E2B0E00C9104FB3F
:1039D00081E00EF480E08F93AFE7B2E08C9187FB3B
:1039E00081E00EF480E09F918923882311F40C94E8
:1039F000101D70917F02706870937F0280917E022B
:103A0000815080937E0200917E02083210F00C9467
:103A10000C1D89E280937E020E9400740C94181D94
:103A20004C9B0C94181D70917F027F7770937F02DE
:103A3000A3E2B0E00C9100FB81E00EF480E08F93F4
:103A4000A9E2B0E00C9101FB81E00EF480E09F91CF
:103A5000892B8F93AFE7B2E08C9186FB81E00EF467
:103A600080E09F918923882311F40C94891D709123
:103A70007F02706470937F02E89A0091F4020C3127
:103A800011F00C94481D85E08093A8020C944B1D06
:103A900080E08093A8020E9406F300917E02083223
:103AA00011F00C946A1D85E08093040281E08093FC
:103AB0000502882780930602E0EDF7EF0E9441F5AA
:103AC0000E940CF188EE93E00E94AAF10E9406F396
:103AD0000C94931D00917E02093211F00C94871D05
:103AE00085E08093040281E080930502882780931B
:103AF0000602E2EEF7EF0E9441F50E940CF188EE1B
:103B000093E00E94AAF10E9406F30C9460210C94A9
:103B1000911D499B0C94911D70917F027F7B709346
:103B20007F020C94A91CE0E0F0E0A2E8B2E091E092
:103B30000E946EF683E090E00E94AAF1E1E0F0E0DE
:103B4000A1E8B2E091E00E946EF683E090E00E946E
:103B5000AAF1E2E0F0E0A9E8B2E091E00E946EF69E
:103B600083E090E00E94AAF1E5E0F0E0AAEEB2E086
:103B700091E00E946EF683E090E00E94AAF1EAE0F4
:103B8000F0E0AAE8B2E091E00E946EF683E090E0F7
:103B90000E94AAF1EBE0F0E0A7E8B2E091E00E9419
:103BA0006EF683E090E00E94AAF1E3E0F0E0ABE87B
:103BB000B2E091E00E946EF683E090E00E94AAF1EC
:103BC0000091DE02013011F00C94081EA1E7B3E071
:103BD0000D91112701501040AAEAB3E00D931C93F8
:103BE000AAEAB3E00D911C9144E85CE00E94C4F4A1
:103BF000AAEAB3E00D931C93AAEAB3E00D911C91DD
:103C00000A5F1F4FAAEAB3E00D931C930C944E1E5B
:103C10000091DE02023011F00C944E1EA1E7B3E0D9
:103C20000D91112701501040AAEAB3E00D931C93A7
:103C3000AAEAB3E00D911C9144E85CE00E94C4F450
:103C4000AAEAB3E00D931C93AAEAB3E00D911C918C
:103C50000A5F1F4FAAEAB3E00D931C93A2E7B3E0FB
:103C60000D91112701501040A5EEB2E00D931C9369
:103C7000A5EEB2E00D911C9144E85CE00E94C4F412
:103C8000A5EEB2E00D931C93A5EEB2E00D911C9150
:103C90000A5F1F4FA5EEB2E00D931C9380E090E009
:103CA000A0E9B2E08D939C9380E08093E8020091BC
:103CB000F4020E3111F00C94601E82E08093A80291
:103CC0000091F4020F3111F00C94691E87E080938B
:103CD000A8020E94ABE0E6EFF7EF0E9441F50E94D8
:103CE000DAF00E94E1F0E6EEF1E00E9447F5A0E094
:103CF000B2E0ED93FD938BB78C9383E08093040245
:103D000081E080930502882780930602EAEFF7EFAF
:103D10000E9441F50E940CF184E08093040281E04E
:103D200080930502882780930602ECE0F8EF0E945A
:103D300041F50E940CF10E944CE1A8EEB2E08C919A
:103D40008F5F8C93A0E9B2E00E9451F0AFE7B2E040
:103D50008C9182FB16F00C94AF1E0C94F408009129
:103D6000A802053011F00C94BD1E0E94BE868CEB9B
:103D700092E00E94AAF10C94BF1E0E942E9AAFE717
:103D8000B2E08C9182FB16F00C94C81E0C94F408DF
:103D900000916703003011F00C94D21E84EF91E083
:103DA0000E94AAF100916703013011F00C94DC1E0F
:103DB0008AEF90E00E94AAF1A0E9B2E00D911C9177
:103DC0000F3050E0150711F00C949B1E80E090E03E
:103DD000A0E9B2E08D939C9380E08093920280E012
:103DE0008093E802399AE4EFF1E08EE591E00197E3
:103DF000419A0E949DF141980E949DF1482F492BC4
:103E0000B1F7399AE8EEF3E08CE291E00197419A3C
:103E10000E949DF141980E949DF1482F492BB1F7D6
:103E20000E9406F3A9E8B2E08C91AEE8B2E08D936F
:103E300088278C9380E08093E90200918902033007
:103E400010F40C94311F0091890242E0041BABEE88
:103E5000B2E00C930091890241E0041BACEEB2E0A9
:103E60000C9382E08093040281E08093050288270E
:103E700080930602E0E2F8EF0E9441F50E940CF107
:103E800083E08093040281E0809305028827809379
:103E90000602E2E3F8EF0E9441F50E940CF185E092
:103EA0008093040281E080930502882780930602B4
:103EB000E4E4F8EF0E9441F50E940CF186E0809363
:103EC000040281E080930502882780930602E8E5DA
:103ED000F8EF0E9441F50E940CF187E08093040204
:103EE00081E080930502882780930602EAE6F8EFD6
:103EF0000E9441F50E940CF10E944CE10E94ABE04F
:103F0000A3E2B0E00C9100FB81E00EF480E08F931F
:103F1000A9E2B0E00C9101FB81E00EF480E09F91FA
:103F2000892B8F93AFE7B2E08C9186FB81E00EF492
:103F300080E09F918923882311F40C94AA1F70912B
:103F40007F02706470937F020E9406F30C94BD1F81
:103F50000C94B21F499B0C94B21F70917F027F7B1F
:103F600070937F02AFE7B2E08C9182FB16F00C9465
:103F7000BB1F0C94F4080C947C1F0E9406F3ABE862
:103F8000B2E08C9182508C93AEE8B2E08D919C911E
:103F9000A0E9B2E08D939C93A0E9B2E04D915C91D1
:103FA00001E010E00417150718F011F00C946021DF
:103FB000A9EEB2E08C918F5F8C93AFE7B2E08C9169
:103FC00082FB16F00C94E61F0C94F4080091670332
:103FD000003011F00C94F01F8CEB92E00E94AAF1DB
:103FE00000916703013011F00C94FA1F82EC91E00C
:103FF0000E94AAF100916703023011F00C94042092
:104000008AE090E00E94AAF100918B02003011F446
:104010000C941C20ABE8B2E00D91112744EF51E065
:104020000E94C4F4ACE8B2E00D931C93ACE8B2E09B
:104030008D919C910E94AAF1AFE7B2E08C9182FB36
:1040400016F00C9425200C94F4080091A802053079
:1040500011F00C94432081E080939202409166031A
:1040600000919202041718F011F00C9441200E9464
:10407000BE86A2E9B2E08C918F5F8C9310F40C9411
:104080002E200C945F200091A802053011F40C94AE
:104090005F2081E08093920240916603009192023A
:1040A000041718F011F00C945F200E942E9AA2E9D8
:1040B000B2E08C918F5F8C9310F40C944C2082E0D2
:1040C0008093040285E0809305028827809306028E
:1040D000ECE7F8EF0E9441F50E940CF183E0809339
:1040E000040281E080930502882780930602EAEFAC
:1040F000F7EF0E9441F50E940CF184E080930402E6
:1041000081E080930502882780930602E0E9F8EFBA
:104110000E9441F50E940CF186E08093040281E048
:1041200080930502882780930602E2EAF8EF0E9456
:1041300041F50E940CF1E0E9F2E0AEE3B0E20E944A
:10414000C5F50E9404F1EEEAF8EF0E9441F50E94E5
:104150000CF1A0E9B2E00D911C91013050E015077F
:1041600011F00C945021A9E8B2E00D911127015FE4
:104170001F4FAEE8B2E00D931C93EEE8F2E0D19051
:10418000E080FF2400270E9477F70E9419F7EEE4F1
:10419000F2E00E940AF70E94C7F7EDE0F0E0AEE41B
:1041A000B2E00E944EF6EEE4F2E0A2E6B2E00E9437
:1041B0004EF6A0E3B2E0E2E0F4EF0E9441F50E9487
:1041C0001CF5A5E3B2E0E2E0F4EF0E9441F50E94A5
:1041D0001CF580E08093E902AAE4B2E0E2E0F4EFAB
:1041E0000E9441F50E941CF5A2E5B2E0E2E0F4EF86
:1041F0000E9441F50E941CF5A6E5B2E0E2E0F4EF72
:104200000E9441F50E941CF5AAE5B2E0E2E0F4EF5D
:104210000E9441F50E941CF5AEE5B2E0E2E0F4EF49
:104220000E9441F50E941CF5A6E6B2E0E2E0F4EF40
:104230000E9441F50E941CF5AAE6B2E0E2E0F4EF2C
:104240000E9441F50E941CF5AEE6B2E0E2E0F4EF18
:104250000E9441F50E941CF5A2E7B2E0E2E0F4EF13
:104260000E9441F50E941CF500E010E020E030E0E3
:10427000ADEAB2E00D931D932D933C930E9406F39B
:1042800000918202053111F00C9448210C9487258D
:1042900000918202063111F00C9450210C940728F1
:1042A000AFE7B2E08C9182FB16F00C9459210C948C
:1042B000F408A0E9B2E00E9458F010F00C94CC1F72
:1042C000E0E0F0E0A2E8B2E091E00E946EF683E068
:1042D00090E00E94AAF1E1E0F0E0A1E8B2E091E014
:1042E0000E946EF683E090E00E94AAF1E2E0F0E026
:1042F000A9E8B2E091E00E946EF683E090E00E94AF
:10430000AAF1E5E0F0E0AAEEB2E091E00E946EF6DC
:1043100083E090E00E94AAF1EAE0F0E0AAE8B2E0CF
:1043200091E00E946EF683E090E00E94AAF1EBE03B
:10433000F0E0A7E8B2E091E00E946EF683E090E042
:104340000E94AAF10091DE02013011F00C94CA2102
:10435000A1E7B3E00D91112701501040AAEAB3E0A4
:104360000D931C93AAEAB3E00D911C9144E85CE024
:104370000E94C4F4AAEAB3E00D931C93AAEAB3E046
:104380000D911C910A5F1F4FAAEAB3E00D931C9395
:104390000C9410220091DE02023011F00C941022D5
:1043A000A1E7B3E00D91112701501040AAEAB3E054
:1043B0000D931C93AAEAB3E00D911C9144E85CE0D4
:1043C0000E94C4F4AAEAB3E00D931C93AAEAB3E0F6
:1043D0000D911C910A5F1F4FAAEAB3E00D931C9345
:1043E000A2E7B3E00D91112701501040A5EEB2E015
:1043F0000D931C93A5EEB2E00D911C9144E85CE096
:104400000E94C4F4A5EEB2E00D931C93A5EEB2E0B9
:104410000D911C910A5F1F4FA5EEB2E00D931C9306
:1044200080E090E0A0E9B2E08D939C9380E08093DF
:10443000E8020091F4020E3111F00C94222282E085
:104440008093A8020091F4020F3111F00C942B22FA
:1044500087E08093A8020E944CE10E94ABE0E6EF67
:10446000F7EF0E9441F50E94DAF00E94E1F0A8EE19
:10447000B2E08C918F5F8C93A0E9B2E00E9451F082
:10448000A3E2B0E00C9106FB81E00EF480E08F9394
:10449000ACE2B0E00C9105FB81E00EF480E09F916E
:1044A00089238F930091DE02003081E009F080E0E3
:1044B0009F918923882311F40C9460220C94D32EAD
:1044C000E6EEF1E00E9447F5A0E0B2E0ED93FD9347
:1044D0008BB78C9383E08093040281E08093050284
:1044E000882780930602EAEFF7EF0E9441F50E94C9
:1044F0000CF184E08093040281E080930502882718
:1045000080930602ECE0F8EF0E9441F50E940CF166
:104510000091A802053011F00C94A62281E080934E
:1045200092024091660300919202041718F011F074
:104530000C94A4220E94BE86A2E9B2E08C918F5F07
:104540008C9310F40C9491220C94BC2281E0809303
:1045500092024091660300919202041718F011F044
:104560000C94BC220E942E9AA2E9B2E08C918F5F3B
:104570008C9310F40C94A922AFE7B2E08C9182FBEB
:1045800016F00C94C5220C94F408009167030030D7
:1045900011F00C94CF2284EF91E00E94AAF10091D7
:1045A0006703013011F00C94D9228AEF90E00E9449
:1045B000AAF1A0E9B2E00D911C910F3050E015076F
:1045C00011F00C94372280E090E0A0E9B2E08D93E6
:1045D0009C9380E08093920280E08093E802399A75
:1045E000E4EFF1E08EE591E00197419A0E949DF1A0
:1045F00041980E949DF1482F492BB1F7399AE8EE76
:10460000F3E08CE291E00197419A0E949DF141987C
:104610000E949DF1482F492BB1F780E08093E90279
:10462000A9E8B2E08C91AEE8B2E08D9388278C9334
:1046300000918902033010F40C942C23009189021C
:1046400042E0041BABEEB2E00C930091890241E022
:10465000041BACEEB2E00C93E6EEF1E00E9447F5ED
:10466000A0E0B2E0ED93FD938BB78C9382E0809352
:10467000040281E080930502882780930602E4EB20
:10468000F8EF0E9441F50E940CF183E08093040250
:1046900081E080930502882780930602E8ECF8EF1A
:1046A0000E9441F50E940CF184E08093040281E0B5
:1046B00080930502882780930602EAEDF8EF0E94B6
:1046C00041F50E940CF185E08093040281E0809323
:1046D0000502882780930602EEEEF8EF0E9441F56E
:1046E0000E940CF10E94ABE00E944CE1A3E2B0E01A
:1046F0000C9106FB81E00EF480E08F93ACE2B0E019
:104700000C9105FB81E00EF480E09F9189238F934B
:104710000091DE02003081E009F080E09F91892362
:10472000882311F40C9496230C94D32EA3E2B0E0CA
:104730000C9100FB81E00EF480E08F93A9E2B0E0E1
:104740000C9101FB81E00EF480E09F91892B8F9307
:10475000ACE2B0E00C9102FB81E00EF480E09F91AE
:1047600089238F93AFE7B2E08C9186FB81E00EF452
:1047700080E09F918923882311F40C94F023709199
:104780007F02706470937F02399AE4ECF9E086E965
:1047900090E00197419A0E949DF141980E949DF1FD
:1047A000482F492BB1F7399AE8E7F5E08AEF90E016
:1047B0000197419A0E949DF141980E949DF1482FD6
:1047C000492BB1F700913402013011F00C94EE2323
:1047D0002C9A80E293E00E94AAF12C980C945F2519
:1047E000A3E2B0E00C9100FB81E00EF480E08F9337
:1047F000A9E2B0E00C9101FB81E00EF480E09F9112
:10480000892B8F93ACE2B0E00C9102FB81E00EF0BB
:1048100080E09F9189238F93AFE7B2E08C9186FB74
:1048200081E00EF480E09F918923882311F40C9499
:10483000572570917F02706470937F02A9EEB2E0F9
:104840008C918F5F8C93AEE8B2E00E9458F0E6EE58
:10485000F1E00E9447F5A0E0B2E0ED93FD938BB745
:104860008C9387E08093040281E08093050288277F
:1048700080930602E2EAF8EF0E9441F50E940CF1F3
:10488000EEE8F2E0AEE3B0E20E94C5F50E9404F16A
:10489000EEEAF8EF0E9441F50E940CF1009134021B
:1048A000013011F00C945A242C9A82E890E00E9476
:1048B000AAF12C98AFE7B2E08C9182FB16F00C9431
:1048C00063240C94F4080091A802053011F00C94B4
:1048D000882481E090E0A0E9B2E08D939C93A6E665
:1048E000B3E04D915527A0E9B2E00D911C9104175A
:1048F000150718F011F00C9486240E94BE86A0E9DA
:10490000B2E00E9451F010F40C946F240C94A52492
:1049100081E090E0A0E9B2E08D939C93A6E6B3E03D
:104920004D915527A0E9B2E00D911C910417150790
:1049300018F011F00C94A5240E942E9AA0E9B2E080
:104940000E9451F010F40C948E24AFE7B2E08C91E9
:1049500082FB16F00C94AE240C94F408AEE8B2E09E
:104960000D911C91003050E0150711F00C94552565
:10497000A9E8B2E00D911127015F1F4FAEE8B2E048
:104980000D931C93EEE8F2E0D190E080FF24002725
:104990000E9477F70E9419F7EEE4F2E00E940AF70E
:1049A0000E94C7F7EDE0F0E0AEE4B2E00E944EF600
:1049B000EEE4F2E0A2E6B2E00E944EF6A0E3B2E03E
:1049C000E2E0F4EF0E9441F50E941CF5A5E3B2E09D
:1049D000E2E0F4EF0E9441F50E941CF580E0809334
:1049E000E902AAE4B2E0E2E0F4EF0E9441F50E949D
:1049F0001CF5A2E5B2E0E2E0F4EF0E9441F50E946E
:104A00001CF5A6E5B2E0E2E0F4EF0E9441F50E9459
:104A10001CF5AAE5B2E0E2E0F4EF0E9441F50E9445
:104A20001CF5AEE5B2E0E2E0F4EF0E9441F50E9431
:104A30001CF5A6E6B2E0E2E0F4EF0E9441F50E9428
:104A40001CF5AAE6B2E0E2E0F4EF0E9441F50E9414
:104A50001CF5AEE6B2E0E2E0F4EF0E9441F50E9400
:104A60001CF5A2E7B2E0E2E0F4EF0E9441F50E94FB
:104A70001CF500E010E020E030E0ADEAB2E00D937C
:104A80001D932D933C930E9406F300918202053101
:104A900011F00C944D250C9487250091820206316B
:104AA00011F00C9455250C9407280C945F25499B14
:104AB0000C945F2570917F027F7B70937F0287E06B
:104AC0008093040281E08093050288278093060288
:104AD000E2EAF8EF0E9441F50E940CF1EEE8F2E004
:104AE000AEE3B0E20E94C5F50E9404F1E2EAF8EFFD
:104AF0000E9441F50E940CF1AFE7B2E08C9182FB7D
:104B000016F00C9485250C94F4080C94762381E01F
:104B10008093A8020091F4020E3111F00C949325B9
:104B200083E08093A8020091F4020F3111F00C94FD
:104B30009C2588E08093A802E3E0F0E0ABE8B2E0D7
:104B400091E00E946EF683E090E00E94AAF180E07E
:104B5000809393020E9406F3E6EEF1E00E9447F58F
:104B6000A0E0B2E0ED93FD938BB78C9382E080934D
:104B7000040281E080930502882780930602EEEF0D
:104B8000F8EF0E9441F50E940CF183E0809304024B
:104B900081E080930502882780930602EAE6F8EF19
:104BA0000E9441F50E940CF185E08093040281E0AF
:104BB00080930502882780930602E0E2F8EF0E94C6
:104BC00041F50E940CF186E08093040281E080931D
:104BD0000502882780930602E0E1F9EF0E9441F583
:104BE0000E940CF1399AE4ECF9E088E790E0019733
:104BF000419A0E949DF141980E949DF1482F492BB6
:104C0000B1F7399AE8EEF3E08AEF90E00197419A24
:104C10000E949DF141980E949DF1482F492BB1F7C8
:104C2000399AE4ECF9E088E790E00197419A0E9414
:104C30009DF141980E949DF1482F492BB1F7399A77
:104C4000E8EEF3E08AEF90E00197419A0E949DF12F
:104C500041980E949DF1482F492BB1F70E944CE1E9
:104C60000E94ABE0A3E2B0E00C9100FB81E00EF407
:104C700080E08F93A9E2B0E00C9101FB81E00EF49B
:104C800080E09F91892B882311F40C9449260C9481
:104C90005426AFE7B2E08C9182FB16F00C945226BA
:104CA0000C94F4080C942E260E9406F3A3E2B0E0C4
:104CB0000C9106FB81E00EF480E08F93ACE2B0E053
:104CC0000C9105FB81E00EF480E09F9189238F9386
:104CD0000091DE02003081E009F080E09F9189239D
:104CE000882311F40C9476260C94D32EAFE7B2E00F
:104CF0008C9182FB16F00C947F260C94F4080091A2
:104D0000F4020C3111F00C94A42681E090E0A0E9AB
:104D1000B2E08D939C93A6E6B3E04D915527A0E9B0
:104D2000B2E00D911C910417150718F011F00C94C6
:104D3000A2260E94BE86A0E9B2E00E9451F010F4C3
:104D40000C948B260C94C12681E090E0A0E9B2E09F
:104D50008D939C93A6E6B3E04D915527A0E9B2E070
:104D60000D911C910417150718F011F00C94C12631
:104D70000E942E9AA0E9B2E00E9451F010F40C9427
:104D8000AA26A3E9B2E08C918F5F8C9340918902AF
:104D900000919302041710F40C94D326A8E8B2E013
:104DA0008C918F5F8C93AFE7B2E08C9182FB16F011
:104DB0000C94DC260C94F4080091F4020E3111F0EE
:104DC0000C94E6260E9413850C94EE260091F402C2
:104DD0000E3111F40C94EE260E94E67C409189027B
:104DE00000919302041710F40C94C52780E080937F
:104DF00093020E9406F3AFE7B2E08C9182FB16F0BB
:104E00000C9404270C94F40881E08093040281E060
:104E100080930502882780930602E2E2F9EF0E9460
:104E200041F50E940CF182E08093040281E08093BE
:104E30000502882780930602E4E3F9EF0E9441F51A
:104E40000E940CF184E08093040281E080930502CB
:104E5000882780930602E6E4F9EF0E9441F50E945C
:104E60000CF185E08093040281E08093050288279D
:104E700080930602E0E1F9EF0E9441F50E940CF1F7
:104E800086E08093040281E0809305028827809366
:104E90000602E6E5F9EF0E9441F50E940CF188E078
:104EA0008093040281E080930502882780930602A4
:104EB000EAE6F9EF0E9441F50E940CF1E8E8F2E021
:104EC000AEE3B0E20E94D5F50E9404F1E8E6F7EF08
:104ED0000E9441F50E940CF100913402013011F062
:104EE0000C9478272C9A84E893E00E94AAF12C98DD
:104EF0004C990C94A1270E9406F384E0809304024D
:104F000081E080930502882780930602E2E7F9EFAB
:104F10000E9441F50E940CF185E08093040281E03B
:104F200080930502882780930602E2E8F9EF0E9449
:104F300041F50E940CF18CED95E00E94AAF10C94D1
:104F40000728A3E2B0E00C9100FB81E00EF480E0C2
:104F50008F93A9E2B0E00C9101FB81E00EF480E0B8
:104F60009F91892B882311F40C94BA270E9406F391
:104F70000C94C527AFE7B2E08C9182FB16F00C943D
:104F8000C3270C94F4080C94782700916703003031
:104F900011F00C94CF278CEB92E00E94AAF10091C3
:104FA0006703013011F00C94D92780E991E00E9449
:104FB000AAF100916703023011F00C94E427ABE8EA
:104FC000B2E08C9182508C9300918B02003011F4EE
:104FD0000C94FC27ABE8B2E00D91112744EF51E0AF
:104FE0000E94C4F4ACE8B2E00D931C93ACE8B2E0CC
:104FF0008D919C910E94AAF1AFE7B2E08C9182FB67
:1050000016F00C9405280C94F4080C94562681E0B4
:105010008093A8020091F4020E3111F00C94132831
:1050200083E08093A8020091F4020F3111F00C94F8
:105030001C2888E08093A80280E0809393020E945D
:1050400006F382E08093040281E0809305028827C2
:1050500080930602E4E9F9EF0E9441F50E940CF109
:1050600083E08093040281E0809305028827809387
:105070000602E8EAF9EF0E9441F50E940CF185E092
:105080008093040281E080930502882780930602C2
:10509000ECEBF9EF0E9441F50E940CF186E0809361
:1050A000040281E080930502882780930602ECECDD
:1050B000F9EF0E9441F50E940CF187E08093040211
:1050C00081E080930502882780930602E2E9F7EFEA
:1050D0000E9441F50E940CF1399AE4ECF9E088E76E
:1050E00090E00197419A0E949DF141980E949DF1A4
:1050F000482F492BB1F7399AE8EEF3E08AEF90E0B8
:105100000197419A0E949DF141980E949DF1482F7C
:10511000492BB1F7399AE4ECF9E088E790E0019780
:10512000419A0E949DF141980E949DF1482F492B80
:10513000B1F7399AE8EEF3E08AEF90E00197419AEF
:105140000E949DF141980E949DF1482F492BB1F793
:105150000E944CE10E94ABE0A3E2B0E00C9100FBA6
:1051600081E00EF480E08F93A9E2B0E00C9101FBA6
:1051700081E00EF480E09F91892B882311F40C9438
:10518000CA280E9406F370917F027F7B70937F0292
:105190000C948629AFE7B2E08C9182FB16F00C9458
:1051A000D3280C94F4080C94A828A3E2B0E00C9146
:1051B00006FB81E00EF480E08F93ACE2B0E00C914E
:1051C00005FB81E00EF480E09F9189238F9300918D
:1051D000DE02003081E009F080E09F91892388237E
:1051E00011F40C94F5280C94D32EAFE7B2E08C9117
:1051F00082FB16F00C94FE280C94F408A3E2B0E0B5
:105200000C9100FB81E00EF480E08F93A9E2B0E006
:105210000C9101FB81E00EF480E09F91892B8F932C
:10522000ACE2B0E00C9102FB81E00EF480E09F91D3
:1052300089238F93AFE7B2E08C9186FB81E00EF477
:1052400080E09F918923882311F40C945829709150
:105250007F02706470937F02399AE4ECF9E086E98A
:1052600090E00197419A0E949DF141980E949DF122
:10527000482F492BB1F7399AE8E7F5E08AEF90E03B
:105280000197419A0E949DF141980E949DF1482FFB
:10529000492BB1F700913402013011F00C945629DA
:1052A0002C9A80E293E00E94AAF12C980C94DF2AB9
:1052B000A3E2B0E00C9100FB81E00EF480E08F935C
:1052C000A9E2B0E00C9101FB81E00EF480E09F9137
:1052D000892B8F93ACE2B0E00C9102FB81E00EF0E1
:1052E00080E09F9189238F93AFE7B2E08C9186FB9A
:1052F00081E00EF480E09F918923882311F40C94BF
:10530000D72A70917F02706470937F0200913402FB
:10531000013011F00C9492292C9A88E790E00E94B9
:10532000AAF12C980091F4020C3111F00C94B729D9
:1053300081E090E0A0E9B2E08D939C93A6E6B3E013
:105340004D915527A0E9B2E00D911C910417150766
:1053500018F011F00C94B5290E94BE86A0E9B2E0C5
:105360000E9451F010F40C949E290C94D42981E0F1
:1053700090E0A0E9B2E08D939C93A6E6B3E04D9156
:105380005527A0E9B2E00D911C910417150718F0FC
:1053900011F00C94D4290E942E9AA0E9B2E00E9448
:1053A00051F010F40C94BD29A3E9B2E08C918F5F09
:1053B0008C934091890200919302041710F40C948D
:1053C000B52A80E080939302A8E8B2E08C918F5FC9
:1053D0008C930E9406F3AFE7B2E08C9182FB16F04B
:1053E0000C94F4290C94F40881E08093040281E089
:1053F00080930502882780930602E2E2F9EF0E947B
:1054000041F50E940CF182E08093040281E08093D8
:105410000502882780930602E4E3F9EF0E9441F534
:105420000E940CF184E08093040281E080930502E5
:10543000882780930602E6E4F9EF0E9441F50E9476
:105440000CF185E08093040281E0809305028827B7
:1054500080930602E0E1F9EF0E9441F50E940CF111
:1054600086E08093040281E0809305028827809380
:105470000602E6E5F9EF0E9441F50E940CF188E092
:105480008093040281E080930502882780930602BE
:10549000EAE6F9EF0E9441F50E940CF1E8E8F2E03B
:1054A000AEE3B0E20E94D5F50E9404F1E8E6F7EF22
:1054B0000E9441F50E940CF100913402013011F07C
:1054C0000C94682A2C9A84E893E00E94AAF12C9804
:1054D0004C990C94912A0E9406F384E08093040274
:1054E00081E080930502882780930602E2E7F9EFC6
:1054F0000E9441F50E940CF185E08093040281E056
:1055000080930502882780930602ECEDF9EF0E9454
:1055100041F50E940CF18CED95E00E94AAF10C94EB
:105520008725A3E2B0E00C9100FB81E00EF480E05F
:105530008F93A9E2B0E00C9101FB81E00EF480E0D2
:105540009F91892B882311F40C94AA2A0E9406F3B8
:105550000C948629AFE7B2E08C9182FB16F00C9494
:10556000B32A0C94F4080C94682A409189020091A3
:105570009302041718F011F00C94C02A0C94C32A5B
:1055800081E0809393020091F4020E3111F00C94AB
:10559000CD2A0E9413850C94D52A0091F4020E3175
:1055A00011F40C94D52A0E94E67C0C94DF2A499BC6
:1055B0000C94DF2A70917F027F7B70937F02AFE7AC
:1055C000B2E08C9182FB16F00C94E82A0C94F4085B
:1055D0000C94D52870917F02706170937F02A3E8CC
:1055E000B2E0E2E0F4EF0E9441F50E941CF5AAE46B
:1055F000B2E0E2E0F4EF0E9441F50E941CF5AAE55A
:10560000B2E0E2E0F4EF0E9441F50E941CF5AEE545
:10561000B2E0E2E0F4EF0E9441F50E941CF580E068
:105620008093490280E08093EE025F985E985D98D7
:105630000091F4020E3111F00C94212B86E080933E
:10564000A8020091F4020F3111F00C942A2B89E08A
:105650008093A80280E090E0A0E9B2E08D939C9353
:1056600081E090E0A0E9B2E08D939C93A6E6B3E0E0
:105670004D915527A0E9B2E00D911C910417150733
:1056800018F011F00C946C2B0091F4020E3111F40F
:105690000C944C2B0E94BE860091F4020E3181E0E6
:1056A00009F080E08F930091F4020F3181E009F05E
:1056B00080E09F91892B882311F40C94612B0E9428
:1056C0002E9A8AE090E00E94AAF1A0E9B2E00E943E
:1056D00051F010F40C94362B80E090E0A0E9B2E099
:1056E0008D939C930E9406F30E944CE181E080938D
:1056F000040280E180930502882780930602ECEE85
:10570000F9EF0E9441F50E940CF182E080930402BF
:1057100084E180930502882780930602ECEFF9EF7D
:105720000E9441F50E940CF183E08093040288E11D
:1057300080930502882780930602ECE0FAEF0E942E
:1057400041F50E940CF184E0809304028CE1809387
:105750000502882780930602EAE1FAEF0E9441F5EC
:105760000E940CF185E08093040289E18093050298
:10577000882780930602E8E2FAEF0E9441F50E9432
:105780000CF1EEEEF2E0AEE3B0E20E94D5F50E943D
:1057900004F10E94ABE0A9E2B0E00C9104FB81E0CF
:1057A0000EF480E08F93AFE7B2E08C9187FB81E04D
:1057B0000EF480E09F918923882311F40C941D2C12
:1057C00070917F02706870937F02AEEEB2E08C91B0
:1057D0008F5F8C93E6EEF1E00E9447F5A0E0B2E027
:1057E000ED93FD938BB78C9385E08093040289E160
:1057F00080930502882780930602E8E2FAEF0E9470
:1058000041F50E940CF1EEEEF2E0AEE3B0E20E9450
:10581000D5F50E9404F100913402013011F00C948E
:10582000172C2C9A88E790E00E94AAF12C9888EC1B
:1058300090E00E94AAF10C94252C4C9B0C94252CF2
:1058400070917F027F7770937F02A9E2B0E00C91A4
:1058500001FB81E00EF480E08F93AFE7B2E08C9122
:1058600086FB81E00EF480E09F918923882311F468
:105870000C944F2C70917F02706470937F020091A2
:105880003402013011F00C944B2C2C9A88E790E0F4
:105890000E94AAF12C980C94EA2A0C94572C499B4C
:1058A0000C94572C70917F027F7B70937F02AFE73F
:1058B000B2E08C9182FB16F00C94602C0C94F408EE
:1058C0000091F4020E3111F40C94682C0E94BE86F3
:1058D0000091F4020E3181E009F080E08F93009195
:1058E000F4020F3181E009F080E09F91892B882339
:1058F00011F40C947D2C0E942E9AAFE7B2E08C91AB
:1059000082FB16F00C94862C0C94F4080C94CB2B90
:10591000E6EFF7EF0E9441F50E94DAF00E94E1F015
:105920008AE090E00E94AAF10E9406F384E080934E
:10593000040289E180930502882780930602E2E34E
:10594000FAEF0E9441F50E940CF185E08093040279
:1059500089E180930502882780930602E0E4FAEF4C
:105960000E9441F50E940CF10091F4020C3111F0FB
:105970000C94C22CE0E5FAEF0E9441F50E94DAF0A7
:105980000E94E1F00091F4020D3111F00C94D02C42
:10599000E8E5FAEF0E9441F50E94DAF00E94E1F09A
:1059A0000091F4020E3111F00C94DE2CE0E6FAEFD7
:1059B0000E9441F50E94DAF00E94E1F00091F402A9
:1059C0000F3111F00C94EC2CEAE6FAEF0E9441F54D
:1059D0000E94DAF00E94E1F084E08093D00388EC2A
:1059E00090E00E94AAF10091D003003011F00C94D5
:1059F000FB2C0C94062DAFE7B2E08C9182FB16F0E5
:105A00000C94042D0C94F4080C94F32C399AE8EEC1
:105A1000F3E08AEF90E00197419A0E949DF141984E
:105A20000E949DF1482F492BB1F7399AE4ECF9E037
:105A300088E790E00197419A0E949DF141980E9469
:105A40009DF1482F492BB1F70091F4020C3111F070
:105A50000C94322DE2E7FAEF0E9441F50E94DAF051
:105A60000E94E1F00091F4020D3111F00C94402DF0
:105A7000EAE7FAEF0E9441F50E94DAF00E94E1F0B5
:105A80000091F4020E3111F00C944E2DE2E8FAEF81
:105A90000E9441F50E94DAF00E94E1F00091F402C8
:105AA0000F3111F00C945C2DECE8FAEF0E9441F5F7
:105AB0000E94DAF00E94E1F088EC90E00E94AAF1E6
:105AC0000E9406F382E08093040280E18093050245
:105AD000882780930602E4E9FAEF0E9441F50E94CC
